{
	"data": {
		"bytecode": {
			"linkReferences": {},
			"object": "6080604052600f5f556001805560028055600254600154601e91906075565b600355600860045560026005556014600655348015603a575f80fd5b5060a1565b5f819050919050565b7f4e487b71000000000000000000000000000000000000000000000000000000005f52601160045260245ffd5b5f607d82603f565b9150608683603f565b9250828201905080821115609b57609a6048565b5b92915050565b6101e1806100ae5f395ff3fe608060405234801561000f575f80fd5b506004361061007b575f3560e01c8063a068425111610059578063a0684251146100d9578063a56dfe4a146100f7578063ab60ffda14610115578063c392f766146101335761007b565b80630c55699c1461007f5780631ac5e2f11461009d578063853255cc146100bb575b5f80fd5b610087610151565b6040516100949190610192565b60405180910390f35b6100a5610157565b6040516100b29190610192565b60405180910390f35b6100c361015d565b6040516100d09190610192565b60405180910390f35b6100e1610162565b6040516100ee9190610192565b60405180910390f35b6100ff610168565b60405161010c9190610192565b60405180910390f35b61011d61016e565b60405161012a9190610192565b60405180910390f35b61013b610174565b6040516101489190610192565b60405180910390f35b60015481565b60035481565b5f5481565b60055481565b60025481565b60045481565b60065481565b5f819050919050565b61018c8161017a565b82525050565b5f6020820190506101a55f830184610183565b9291505056fea2646970667358221220b31bd2579cc21f74695bcf15a3ed33909c91618ca35dc0962dc80284e7e4a29d64736f6c634300081a0033",
			"opcodes": "PUSH1 0x80 PUSH1 0x40 MSTORE PUSH1 0xF PUSH0 SSTORE PUSH1 0x1 DUP1 SSTORE PUSH1 0x2 DUP1 SSTORE PUSH1 0x2 SLOAD PUSH1 0x1 SLOAD PUSH1 0x1E SWAP2 SWAP1 PUSH1 0x75 JUMP JUMPDEST PUSH1 0x3 SSTORE PUSH1 0x8 PUSH1 0x4 SSTORE PUSH1 0x2 PUSH1 0x5 SSTORE PUSH1 0x14 PUSH1 0x6 SSTORE CALLVALUE DUP1 ISZERO PUSH1 0x3A JUMPI PUSH0 DUP1 REVERT JUMPDEST POP PUSH1 0xA1 JUMP JUMPDEST PUSH0 DUP2 SWAP1 POP SWAP2 SWAP1 POP JUMP JUMPDEST PUSH32 0x4E487B7100000000000000000000000000000000000000000000000000000000 PUSH0 MSTORE PUSH1 0x11 PUSH1 0x4 MSTORE PUSH1 0x24 PUSH0 REVERT JUMPDEST PUSH0 PUSH1 0x7D DUP3 PUSH1 0x3F JUMP JUMPDEST SWAP2 POP PUSH1 0x86 DUP4 PUSH1 0x3F JUMP JUMPDEST SWAP3 POP DUP3 DUP3 ADD SWAP1 POP DUP1 DUP3 GT ISZERO PUSH1 0x9B JUMPI PUSH1 0x9A PUSH1 0x48 JUMP JUMPDEST JUMPDEST SWAP3 SWAP2 POP POP JUMP JUMPDEST PUSH2 0x1E1 DUP1 PUSH2 0xAE PUSH0 CODECOPY PUSH0 RETURN INVALID PUSH1 0x80 PUSH1 0x40 MSTORE CALLVALUE DUP1 ISZERO PUSH2 0xF JUMPI PUSH0 DUP1 REVERT JUMPDEST POP PUSH1 0x4 CALLDATASIZE LT PUSH2 0x7B JUMPI PUSH0 CALLDATALOAD PUSH1 0xE0 SHR DUP1 PUSH4 0xA0684251 GT PUSH2 0x59 JUMPI DUP1 PUSH4 0xA0684251 EQ PUSH2 0xD9 JUMPI DUP1 PUSH4 0xA56DFE4A EQ PUSH2 0xF7 JUMPI DUP1 PUSH4 0xAB60FFDA EQ PUSH2 0x115 JUMPI DUP1 PUSH4 0xC392F766 EQ PUSH2 0x133 JUMPI PUSH2 0x7B JUMP JUMPDEST DUP1 PUSH4 0xC55699C EQ PUSH2 0x7F JUMPI DUP1 PUSH4 0x1AC5E2F1 EQ PUSH2 0x9D JUMPI DUP1 PUSH4 0x853255CC EQ PUSH2 0xBB JUMPI JUMPDEST PUSH0 DUP1 REVERT JUMPDEST PUSH2 0x87 PUSH2 0x151 JUMP JUMPDEST PUSH1 0x40 MLOAD PUSH2 0x94 SWAP2 SWAP1 PUSH2 0x192 JUMP JUMPDEST PUSH1 0x40 MLOAD DUP1 SWAP2 SUB SWAP1 RETURN JUMPDEST PUSH2 0xA5 PUSH2 0x157 JUMP JUMPDEST PUSH1 0x40 MLOAD PUSH2 0xB2 SWAP2 SWAP1 PUSH2 0x192 JUMP JUMPDEST PUSH1 0x40 MLOAD DUP1 SWAP2 SUB SWAP1 RETURN JUMPDEST PUSH2 0xC3 PUSH2 0x15D JUMP JUMPDEST PUSH1 0x40 MLOAD PUSH2 0xD0 SWAP2 SWAP1 PUSH2 0x192 JUMP JUMPDEST PUSH1 0x40 MLOAD DUP1 SWAP2 SUB SWAP1 RETURN JUMPDEST PUSH2 0xE1 PUSH2 0x162 JUMP JUMPDEST PUSH1 0x40 MLOAD PUSH2 0xEE SWAP2 SWAP1 PUSH2 0x192 JUMP JUMPDEST PUSH1 0x40 MLOAD DUP1 SWAP2 SUB SWAP1 RETURN JUMPDEST PUSH2 0xFF PUSH2 0x168 JUMP JUMPDEST PUSH1 0x40 MLOAD PUSH2 0x10C SWAP2 SWAP1 PUSH2 0x192 JUMP JUMPDEST PUSH1 0x40 MLOAD DUP1 SWAP2 SUB SWAP1 RETURN JUMPDEST PUSH2 0x11D PUSH2 0x16E JUMP JUMPDEST PUSH1 0x40 MLOAD PUSH2 0x12A SWAP2 SWAP1 PUSH2 0x192 JUMP JUMPDEST PUSH1 0x40 MLOAD DUP1 SWAP2 SUB SWAP1 RETURN JUMPDEST PUSH2 0x13B PUSH2 0x174 JUMP JUMPDEST PUSH1 0x40 MLOAD PUSH2 0x148 SWAP2 SWAP1 PUSH2 0x192 JUMP JUMPDEST PUSH1 0x40 MLOAD DUP1 SWAP2 SUB SWAP1 RETURN JUMPDEST PUSH1 0x1 SLOAD DUP2 JUMP JUMPDEST PUSH1 0x3 SLOAD DUP2 JUMP JUMPDEST PUSH0 SLOAD DUP2 JUMP JUMPDEST PUSH1 0x5 SLOAD DUP2 JUMP JUMPDEST PUSH1 0x2 SLOAD DUP2 JUMP JUMPDEST PUSH1 0x4 SLOAD DUP2 JUMP JUMPDEST PUSH1 0x6 SLOAD DUP2 JUMP JUMPDEST PUSH0 DUP2 SWAP1 POP SWAP2 SWAP1 POP JUMP JUMPDEST PUSH2 0x18C DUP2 PUSH2 0x17A JUMP JUMPDEST DUP3 MSTORE POP POP JUMP JUMPDEST PUSH0 PUSH1 0x20 DUP3 ADD SWAP1 POP PUSH2 0x1A5 PUSH0 DUP4 ADD DUP5 PUSH2 0x183 JUMP JUMPDEST SWAP3 SWAP2 POP POP JUMP INVALID LOG2 PUSH5 0x6970667358 0x22 SLT KECCAK256 0xB3 SHL 0xD2 JUMPI SWAP13 0xC2 0x1F PUSH21 0x695BCF15A3ED33909C91618CA35DC0962DC80284E7 0xE4 LOG2 SWAP14 PUSH5 0x736F6C6343 STOP ADDMOD BYTE STOP CALLER "
		},
		"gasEstimates": {
			"creation": {
				"codeDepositCost": "96200",
				"executionCost": "infinite",
				"totalCost": "infinite"
			},
			"external": {
				"anotherSum()": "2448",
				"exp()": "2469",
				"interest()": "2491",
				"remainder()": "2425",
				"sum()": "2469",
				"x()": "2426",
				"y()": "2447"
			}
		},
		"methodIdentifiers": {
			"anotherSum()": "1ac5e2f1",
			"exp()": "ab60ffda",
			"interest()": "c392f766",
			"remainder()": "a0684251",
			"sum()": "853255cc",
			"x()": "0c55699c",
			"y()": "a56dfe4a"
		}
	},
	"abi": [
		{
			"inputs": [],
			"name": "anotherSum",
			"outputs": [
				{
					"internalType": "uint256",
					"name": "",
					"type": "uint256"
				}
			],
			"stateMutability": "view",
			"type": "function"
		},
		{
			"inputs": [],
			"name": "exp",
			"outputs": [
				{
					"internalType": "uint256",
					"name": "",
					"type": "uint256"
				}
			],
			"stateMutability": "view",
			"type": "function"
		},
		{
			"inputs": [],
			"name": "interest",
			"outputs": [
				{
					"internalType": "uint256",
					"name": "",
					"type": "uint256"
				}
			],
			"stateMutability": "view",
			"type": "function"
		},
		{
			"inputs": [],
			"name": "remainder",
			"outputs": [
				{
					"internalType": "uint256",
					"name": "",
					"type": "uint256"
				}
			],
			"stateMutability": "view",
			"type": "function"
		},
		{
			"inputs": [],
			"name": "sum",
			"outputs": [
				{
					"internalType": "uint256",
					"name": "",
					"type": "uint256"
				}
			],
			"stateMutability": "view",
			"type": "function"
		},
		{
			"inputs": [],
			"name": "x",
			"outputs": [
				{
					"internalType": "uint256",
					"name": "",
					"type": "uint256"
				}
			],
			"stateMutability": "view",
			"type": "function"
		},
		{
			"inputs": [],
			"name": "y",
			"outputs": [
				{
					"internalType": "uint256",
					"name": "",
					"type": "uint256"
				}
			],
			"stateMutability": "view",
			"type": "function"
		}
	]
}